:020000040800F2
:10000000B8060020CD010008370E0008F50B0008E7
:10001000350E0008D30200085D0F00080000000044
:100020000000000000000000000000003B0E00087F
:10003000D502000800000000390E00083D0E00083F
:10004000E7010008E7010008E7010008E7010008F0
:10005000E7010008E7010008E7010008E7010008E0
:10006000E7010008E7010008E7010008E7010008D0
:10007000E7010008E7010008E7010008E7010008C0
:10008000E7010008E7010008E7010008E7010008B0
:10009000E7010008E7010008E7010008E7010008A0
:1000A000E7010008E7010008E7010008E701000890
:1000B000E7010008E7010008E7010008E701000880
:1000C000E7010008E7010008E7010008E701000870
:1000D000E7010008E7010008E7010008E701000860
:1000E000E7010008E7010008E7010008E701000850
:1000F000E7010008E7010008E7010008E701000840
:10010000E7010008E7010008E7010008E70100082F
:10011000E7010008E7010008E7010008E70100081F
:10012000E7010008E7010008E7010008E70100080F
:1001300000F002F800F03AF80AA090E8000C8244BF
:100140008344AAF10107DA4501D100F02FF8AFF29C
:10015000090EBAE80F0013F0010F18BFFB1A43F0A5
:1001600001031847C40E0000E40E0000103A24BF3B
:1001700078C878C1FAD8520724BF30C830C144BF0C
:1001800004680C607047000000230024002500264E
:10019000103A28BF78C1FBD8520728BF30C148BFEA
:1001A0000B6070471FB51FBD10B510BD00F058F8AB
:1001B0001146FFF7F7FF00F0E3FE00F076F803B416
:1001C000FFF7F2FF03BC00F07DF80000094880470C
:1001D00009480047FEE7FEE7FEE7FEE7FEE7FEE729
:1001E000FEE7FEE7FEE7FEE704480549054A064B41
:1001F00070470000910E000831010008B80000208F
:10020000B8060020B8020020B80200204FF000021B
:1002100000B5134694469646203922BFA0E80C50FC
:10022000A0E80C50B1F12001BFF4F7AF090728BFD7
:10023000A0E80C5048BF0CC05DF804EB890028BF53
:1002400040F8042B08BF704748BF20F8022B11F07C
:10025000804F18BF00F8012B7047704770477047F8
:10026000754600F02BF8AE4605006946534620F06F
:100270000700854618B020B5FFF7B6FFBDE820405F
:100280004FF000064FF000074FF000084FF0000B52
:1002900021F00701AC46ACE8C009ACE8C009ACE805
:1002A000C009ACE8C0098D46704710B50446AFF3ED
:1002B00000802046BDE81040FFF781BF004870472E
:1002C0005800002001491820ABBEFEE726000200BE
:1002D0007047FEE77047000070B5044600F010F963
:1002E0000546601C02D004480078044400F008F978
:1002F000401BA042FAD370BD000000202DE9F84F4A
:10030000DFF8C8910024A9F1040B23460F2709F157
:10031000040AABF1040ED1E00125A54006EA05026E
:10032000AA4276D1DFF8A8C14E68A6EB0C08664554
:100330002BD00DDC032E34D005DC36B3012E19D0C2
:10034000022E2FD11BE0112E16D0122E2AD119E029
:10035000B8F5881F19D006DCB8F5803F15D0B8F580
:10036000801F1FD111E0B8F5001F0ED0B8F5041F93
:1003700018D10AE0CB6815E0CB681B1D12E0CB68F2
:1003800008330FE0CB680C330CE08B682BB1012BEA
:100390004FF0080303D0456104E0042302E0056147
:1003A00000E00023FF2A01D8064601E000F1040620
:1003B0004FEA840501D9A5F12005D6F8008007FA97
:1003C00005FC28EA0C0803FA05F548EA0508C6F812
:1003D00000804D68ED0070D53E4DAE6946F00106D7
:1003E000AE61AD6924F0030605F0010500953A4DB4
:1003F00006EB050CDCF80850A607360F07FA06F8DE
:1004000025EA0805DFF8D480404503D14FF0000805
:1004100025E052E0DFF8C880404502D14FF00108E6
:100420001DE0DFF8C080404502D14FF0020816E021
:10043000DFF8B480404502D14FF003080FE0DFF849
:10044000AC80404502D14FF0040808E0DFF8A080FE
:10045000404502D14FF0050801E04FF0060808FAC8
:1004600006F848EA0508CCF808804D68D9F800601D
:10047000ED024D4601D5164300E096432E604D68CF
:10048000DAF80060AD02554601D5164300E0964308
:100490002E604D68DBF80060AD035D4601D5164364
:1004A00000E096432E604D68DEF80060ED0375466F
:1004B00001D5164300E096432E60641C0A68164678
:1004C000E2407FF429AFBDE8F88F00000804014046
:1004D000000011100010024000000140000801401F
:1004E000000C0140001001400014014000180140C0
:1004F000001C01400AB1016170470904FBE70000DC
:1005000001488068704700000000002002488168B0
:10051000027811448160704700000020074810B540
:10052000016841F010010160032000F067F80F201E
:1005300000F006F800F024F8002010BD0020024072
:1005400070B50D4D04464FF47A712878B1FBF0F088
:100550000A490968B1FBF0F000F0CEFA48B9102C56
:1005600007D200222146501E00F028F800206C60BF
:1005700070BD012070BD0000000000200C000020B4
:100580000C4808B5816941F001018161816901F080
:1005900001010091C16941F08051C161C06900F061
:1005A000805000900448416821F0E06141F0007102
:1005B000416008BD0010024000000140F0B40E4B45
:1005C0001B680C46C3F30223C3F10705042D00D9B1
:1005D0000425191D072901D2002300E0DB1E012696
:1005E00006FA05F1491E214099409E40761E1640AC
:1005F0003143F0BC00F0B3BC0CED00E0064900F064
:10060000070208684FF6FF03184040EA0220034A39
:1006100010430860704700000CED00E00000FA0590
:100620002DE9F0470F46050061D0434E306800F0D9
:100630000700B84209D2306820F007003843306024
:10064000306800F00700B84251D128683B4C810760
:1006500012D5400703D5606840F4E06060602878F8
:10066000000703D5606840F4605060606068A96866
:1006700020F0F000084360602878C00728D0686840
:10068000012810D02168022810D0890700292EDA0D
:10069000616821F0030101436160FFF731FF80468B
:1006A00041F288390DE021688903EFE78901EDE720
:1006B000FFF726FFA0EB0801494502D90320BDE85A
:1006C000F0876068696800F00C00B0EB810FEFD133
:1006D000306800F00700B8420BD9306820F00700FE
:1006E00038433060306800F00700B84201D0012084
:1006F000E5E72878400705D56068E96820F4E06000
:10070000084360602878000706D56068296920F4EE
:10071000605040EAC100606000F038F86168084A43
:10072000C1F30311515CC8400649086006480068DF
:10073000FFF706FF0020C2E7002002400010024041
:100740000E1000080C000020040000200448054999
:1007500000684968044AC1F30221515CC8407047EF
:100760000C000020001002401E100008044805493B
:1007700000684968044AC1F3C221515CC84070470F
:100780000C000020001002401E1000080E4A5168A4
:100790000E4801F00C03042B11D0082B0FD10C488C
:1007A000C1F38343C903C05C0AD55168084AC1F349
:1007B0004041921E515C054A5043B0FBF1F0704736
:1007C00004494843704700000010024000127A00BC
:1007D000FE0F000800093D002DE9F84F040070D01D
:1007E0002078C04DC00749D06868C0F38100012857
:1007F00007D06868C0F38100022809D16868C00387
:1008000006D52868800339D560680028E7D035E030
:100810006068B0F5803F0BD010B1B0F5A02F11D0BB
:10082000286820F480302860286820F4802002E0C6
:10083000286840F480302860606890B1FFF760FE5F
:1008400006460AE0286840F480202860F0E700BFF0
:10085000FFF756FE801B642873D828688003F7D5FD
:100860000CE0FFF74DFE064605E000BFFFF748FE2F
:10087000801B6428F0D828688003F7D420789A4E2B
:1008800080074FF001094FF0000839D5686810F073
:100890000C0F07D06868C0F38100022809D168688E
:1008A000C00306D42868800714D52069012808D120
:1008B00010E02069B0B1C6F80090FFF721FE0746AE
:1008C00005E00AE1FFF71CFEC01B0228C4D8286817
:1008D0008007F7D52868616920F0F80040EAC10078
:1008E00028600DE0C6F80080FFF70AFE074604E026
:1008F000FFF706FEC01B022823D828688007F7D41C
:10090000207800072CD57948A169D9B1C0F80090AA
:10091000FFF7F6FD074604E0FFF7F2FDC01B0228D3
:100920000FD8686A8007F7D571484FF4FA5100680C
:10093000B0FBF1F0009000BF0098411E0091FAD288
:100940000EE080E0C0F80080FFF7DAFD074604E023
:10095000FFF7D6FDC01B022875D8686A8007F7D458
:100960002078400760D5E8690027C00008D4E8690E
:1009700040F08050E861E869012700F08050009065
:100980005C480168C90513D40168834641F480714D
:100990000160FFF7B5FD824606E000BFFFF7B0FD3E
:1009A000A0EB0A0064284ED8DBF80000C005F5D59E
:1009B000E06801280AD008B1052813D0286A20F081
:1009C00001002862286A20F0040002E0286A40F052
:1009D00001002862E06841F2883B98B1FFF790FD82
:1009E00082460BE0286A40F004002862EEE700BF70
:1009F000FFF786FDA0EB0A0159455AD8286A8007FF
:100A0000F6D50CE0FFF77CFD824605E0FFF778FDA8
:100A1000A0EB0A0159454CD8286A8007F6D41FB1CB
:100A2000E86920F08050E861E06988B36968C1F343
:100A30008101022944D00228C6F8608004D0FFF763
:100A40005FFD044638E034E0FFF75AFD074604E056
:100A5000FFF756FDC01B02282BD828688001F7D469
:100A6000206AB0F5803F05D16868A16820F40030A5
:100A700008436860D4E908010843696821F47411E7
:100A800008436860C6F86090FFF73AFD044606E048
:100A900025E000BFFFF734FD001B022809D82868B5
:100AA0008001F7D51BE000BFFFF72AFD001B0228DD
:100AB00002D90320BDE8F88F28688001F4D40EE045
:100AC0000128F7D06868226A00F48031914204D18D
:100AD000616A00F47010884201D00120EAE700202A
:100AE000E8E7000000100240000042428004424259
:100AF0000C0000200070004010B5401EB0F1807F57
:100B000001D3012010BD4FF0E02460610F21601778
:100B100000F025FA0020A06107202061002010BD10
:100B200070B5040004D094F84100002510B106E02F
:100B3000012070BD84F84050204600F023F82420A6
:100B400084F841002068C16821F40051C16020464A
:100B500000F0A0F92068016921F49041016120684A
:100B6000416921F02A0141612068C16841F40051C6
:100B7000C1606564202084F8410084F84200656308
:100B8000002070BD30B585B000240094019402941B
:100B9000039400681449884224D11448816941F4BF
:100BA00080418161816901F480410491816941F052
:100BB0000401816180690E4D00F0040004904FF43F
:100BC000007000900220019003200390694628469F
:100BD000FFF794FB2815CDE90004694628460294E6
:100BE000FFF78CFB05B030BD00380140001002401B
:100BF00000080140FEE7012000F024B810B53820BD
:100C000000F020F80C2000F01DF8062000F01AF883
:100C1000012000F017F8BDE81040802000F012B865
:100C200010B5144610B1012803D006E001F1800090
:100C300001E001F1C00000F005F82046BDE81040D9
:100C400000F028B870B50446002280210F48FFF755
:100C500051FC0F4D002201212846FFF74BFC0022DA
:100C600002212846FFF746FCE0B200F03BF80122E3
:100C700011462846FFF73EFC0120FFF72DFB2846D2
:100C8000BDE8704000220121FFF734BC001801408C
:100C9000000C014070B50446012280210F48FFF787
:100CA00029FC0F4D002201212846FFF723FC0022DA
:100CB00002212846FFF71EFCE0B200F013F80122E3
:100CC00011462846FFF716FC0120FFF705FB2846D2
:100CD000BDE8704000220121FFF70CBC0018014064
:100CE000000C014010B5194C034600F0010201212F
:100CF000204600F02BF9C3F340020221204600F009
:100D000025F9C3F380020421204600F01FF9C3F344
:100D1000C0020821204600F019F9C3F30012102187
:100D2000204600F013F9C3F340122021204600F0C2
:100D30000DF9C3F380124021204600F007F9204648
:100D4000DA09BDE81040802100F000B90008014038
:100D50002DE9F04115460E460746002406E03019FD
:100D6000C1B23846FFF75CFF641CE4B22A5D002A7A
:100D7000F5D1BDE8F08100002DE9F04385B00024F5
:100D800028480094019402940394816941F004017D
:100D90008161816901F004010491816941F00801D8
:100DA0008161816901F008010491816941F040018C
:100DB000816180691C4F00F0400004900022FF21F7
:100DC0003846FFF797FBDFF8648000220321404696
:100DD000FFF790FBDFF85890002280214846FFF78C
:100DE00089FBFF2001250226CDE90005CDE9024659
:100DF00069463846FFF782FA0320CDE90005CDE9C0
:100E0000024669464046FFF779FA8020CDE90005A1
:100E1000CDE9024669464846FFF770FA05B0BDE8DD
:100E2000F08300000010024000080140000C014067
:100E300000180140FEE7FEE770477047FFF766BB0A
:100E400010B590B028216846FFF7E0F914210AA8F0
:100E5000FFF7DCF90220009001200490102000240C
:100E6000059007946846FFF7B7FC08B172B6FEE735
:100E70000F20CDE90A040C940D9400210AA80E94C9
:100E8000FFF7CEFB002801D072B6FEE710B010BD10
:100E90007047000070B5044600680169E26821F4FB
:100EA0004051114301612169A06808436169084309
:100EB0002168CA6841F20C639A430243CA60206801
:100EC0004169A26921F44071114341611E492068C2
:100ED000884202D1FFF74AFC01E0FFF737FC00EB44
:100EE000C00101EB0012606864218000B2FBF0F3E6
:100EF000B3FBF1F36FF018067343B2FBF0F5B2FBEE
:100F0000F0F605EB8305322303EB0515B5FBF1F590
:100F1000B6FBF1F605F0F00505EB0615B2FBF0F6B1
:100F2000B2FBF0F0B0FBF1F06FF01802504306EBAB
:100F3000800003EB0010B0FBF1F0216800F00F001F
:100F40002844886070BD000000380140002AC26853
:100F500001D00A4300E08A43C2607047FEE70907F8
:100F6000090E002804DB00F1E02080F8001470472F
:100F700000F00F0000F1E02080F8141D7047000021
:100F8000FFF7CCFAFFF75CFFFFF7F6FE13481249B4
:100F90000C2201604FF4E131416000218160C160A9
:100FA000C0E904128161C161FFF7BAFD08B172B6F0
:100FB000FEE7FFF723FEC820FFF78EF9FFF71BFEC1
:100FC000002107A20846FFF7C3FE08A20021012066
:100FD000FFF7BEFEFEE700000038014010000020D1
:100FE00048454C4C4F2053544D33320048454C4CEF
:100FF0004F204C43443136303200000001020203DE
:101000000405060708090A0B0C0D0E0F101000004E
:1010100000000000000001020304060708090000A8
:101020000000010203040000481000080000002036
:10103000100000006C01000858100008100000208B
:10104000A806000088010008010000001000000050
:081050000000000000127A000C
:0400000508000131BD
:00000001FF
